:1000000026C040C03FC03EC03DC0FCC13BC03AC05E
:1000100039C038C037C036C035C008C124C101025C
:100020000000040000000000010204081020200469
:100030001008020202020202020202020000000094
:1000400036000000000038000000000037001124D6
:100050001FBECFE5D2E0DEBFCDBF10E0A0E6B0E02E
:10006000E0E3FAE002C005900D92AA36B107D9F795
:1000700020E0AAE6B0E001C01D92A93AB207E1F77C
:100080003DD3D4C4BDCF809160008823B9F0609186
:10009000610070916200809163009091640020E0A3
:1000A00030E048EC52E457D49CD360936B0010923C
:1000B0006A00109260008BE990E08CC160916A0048
:1000C0008BE990E087D181E080936000089561E141
:1000D0008BE990E07DD163E470E08BE990E07CD126
:1000E00060E084E075D261E083E072D261E083E099
:1000F000A8D264EF71E080E090E0FED160E083E0A0
:10010000A0C2CF92DF92EF92FF920F931F9384E0F1
:10011000CDD28093710090917000891709F449C085
:1001200060E083E08ED280917100811142C0B4D131
:100130008B019C0180916C0090916D00A0916E00EC
:10014000B0916F0068017901C81AD90AEA0AFB0A5E
:10015000C701B601C0926500D0926600E0926700C8
:10016000F092680045EFC41641E0D406E104F104C2
:1001700000F100936C0010936D0020936E0030939B
:100180006F005BD320E030E04AE754E4C2D29B0129
:10019000AC0160E070E080E291E4BBD2609361006A
:1001A00070936200809363009093640061E083E049
:1001B00048D280917100809370001F910F91FF9041
:1001C000EF90DF90CF900DC11092860010928700C3
:1001D00010928500109273001092740010927200B9
:1001E00080939A0087B3856087BBC29AC09AB898FB
:1001F00088EA8DB980EF8EB90895909172009031A0
:10020000E1F3E0917400F0E0EB58FF4F80838091C0
:1002100074008F5F8F7080937400809172008F5F85
:100220008093720008958091850008951F920F9227
:100230000FB60F9211248F9310929900109298008C
:10024000B898B29B02C0B09BFCCFB09902C088EFB7
:1002500001C088EA8DB980EF8EB98F910F900FBEE3
:100260000F901F9018951F920F920FB60F921124A6
:100270002F933F934F935F936F937F938F939F93AE
:10028000AF93BF93EF93FF93809198009091990063
:100290008230910509F459C028F4009761F0019764
:1002A00079F185C08430910509F458C030F1059783
:1002B00009F45DC07CC08FB1882331F08FB1869581
:1002C00090919A0089133EC0789B67C0E0919C0092
:1002D000F0919D00309739F080918500882319F0C6
:1002E000809185000995E0919E00F0919F003097E4
:1002F00009F0099581E090E052C08FB1811122C0D0
:10030000809172008823D1F0E0917300F0E0EB5807
:10031000FF4F80818FB9809173008F5F8F708093C2
:1003200073008091720081508093720082E090E0AF
:100330009093990080939800B89A17C0B8981FB806
:100340008EE78EB988EA8DB910C083E090E0909373
:10035000990080939800B8981FB827C085E090E076
:100360009093990080939800B89880E71FC080917F
:100370008500803190F4E09187008FB1F0E0E8577C
:10038000FF4F8083809187008F5F8F7080938700FD
:10039000809185008F5F8093850084E090E090934A
:1003A0009900809398001FB8B89A8EE78EB9FF9194
:1003B000EF91BF91AF919F918F917F916F915F91DD
:1003C0004F913F912F910F900FBE0F901F90189556
:1003D000862FFACE862F11CF70939F0060939E00D8
:1003E000089580919C0090919D00892B51F0759B00
:1003F00008C019DF882329F0E0919C00F0919D004E
:10040000099408951F920F920FB60F9211242F9303
:100410003F938F939F93AF93BF938091A10090914F
:10042000A200A091A300B091A4003091A00026E00A
:10043000230F2D3720F40296A11DB11D05C029E818
:10044000230F0396A11DB11D2093A0008093A1004E
:100450009093A200A093A300B093A4008091A50064
:100460009091A600A091A700B091A8000196A11DAF
:10047000B11D8093A5009093A600A093A700B09310
:10048000A800BF91AF919F918F913F912F910F90B5
:100490000FBE0F901F9018952FB7F8946091A10090
:1004A0007091A2008091A3009091A4002FBF0895A5
:1004B0003FB7F8948091A5009091A600A091A70065
:1004C000B091A80022B708B601FE05C02F3F19F071
:1004D0000196A11DB11D3FBF6627782F892F9A2F46
:1004E000620F711D811D911D43E0660F771F881FEC
:1004F000991F4A95D1F708958F929F92AF92BF921C
:10050000CF92DF92EF92FF926B017C01D1DF4B0122
:100510005C01C114D104E104F104E1F0F9D0C8DFB9
:10052000681979098A099B09683E7340810591051C
:1005300080F321E0C21AD108E108F10888EE880EA4
:1005400083E0981EA11CB11CC114D104E104F10484
:1005500031F7DFCFFF90EF90DF90CF90BF90AF905B
:100560009F908F90089578948AB582608ABD8AB5ED
:1005700081608ABD83B7826083BF83B7816083BF98
:1005800089B7826089BF80B7826080BF80B7816091
:1005900080BF329A319A3098379A0895823081F02C
:1005A00018F4813051F00895833019F0843009F047
:1005B00008958CB58F7D8CBD08958AB58F7702C064
:1005C0008AB58F7D8ABD08958CB580648CBD0895F1
:1005D000CF93DF9390E0FC01E85DFF4F2491FC0195
:1005E000EE5CFF4F8491882349F190E0880F991FBA
:1005F000FC01E85BFF4FA591B4918E5B9F4FFC011E
:10060000C591D4919FB7611108C0F8948C91209541
:1006100082238C93888182230AC0623051F4F8943B
:100620008C91322F309583238C938881822B888301
:1006300004C0F8948C91822B8C939FBFDF91CF9153
:1006400008950F931F93CF93DF931F92CDB7DEB71B
:10065000282F30E0F901E25EFF4F8491F901E85D57
:10066000FF4F1491F901EE5CFF4F04910023C1F09C
:10067000882319F0698392DF6981E02FF0E0EE0FA3
:10068000FF1FEE5BFF4FA591B4919FB7F8948C913B
:10069000611103C01095812301C0812B8C939FBFF2
:1006A0000F90DF91CF911F910F910895CF93DF931A
:1006B000282F30E0F901E25EFF4F8491F901E85DF7
:1006C000FF4FD491F901EE5CFF4FC491CC2389F028
:1006D000811164DFEC2FF0E0EE0FFF1FE45CFF4FB1
:1006E000A591B4912C912D2381E090E021F480E03C
:1006F00002C080E090E0DF91CF91089534DF64DFA5
:10070000E6DCC0E0D0E0FDDC2097E9F379DCFBCF4C
:1007100008950CD0E6C0DED040F0D5D030F021F402
:100720005F3F19F0C7C0511110C1CAC0EBD098F398
:100730009923C9F35523B1F3951B550BBB27AA2762
:1007400062177307840738F09F5F5F4F220F331FD4
:10075000441FAA1FA9F333D00E2E3AF0E0E830D0A0
:1007600091505040E695001CCAF729D0FE2F27D0A3
:10077000660F771F881FBB1F261737074807AB0771
:10078000B0E809F0BB0B802DBF01FF2793585F4FE6
:100790002AF09E3F510568F08DC0D7C05F3FECF353
:1007A000983EDCF3869577956795B795F7959F5FAB
:1007B000C9F7880F911D9695879597F90895E1E0FF
:1007C000660F771F881FBB1F621773078407BA075E
:1007D00020F0621B730B840BBA0BEE1F88F7E095B9
:1007E000089598D088F09F5790F0B92F9927B75166
:1007F000A0F0D1F0660F771F881F991F1AF0BA95E5
:10080000C9F712C0B13081F09FD0B1E008959CC00B
:10081000672F782F8827B85F39F0B93FCCF38695DA
:1008200077956795B395D9F73EF490958095709537
:1008300061957F4F8F4F9F4F0895E89409C097FBB4
:100840003EF490958095709561957F4F8F4F9F4FA7
:100850009923A9F0F92F96E9BB279395F6958795EB
:1008600077956795B795F111F8CFFAF4BB0F11F4AE
:1008700060FF1BC06F5F7F4F8F4F9F4F16C0882355
:1008800011F096E911C0772321F09EE8872F762F8B
:1008900005C0662371F096E8862F70E060E02AF0CC
:1008A0009A95660F771F881FDAF7880F96958795B8
:1008B00097F9089597F99F6780E870E060E00895E0
:1008C0009FEF80EC089500240A9416161706180668
:1008D0000906089500240A94121613061406050644
:1008E0000895092E0394000C11F4882352F0BB0FD5
:1008F00040F4BF2B11F460FF04C06F5F7F4F8F4F38
:100900009F4F089557FD9058440F551F59F05F3F72
:1009100071F04795880F97FB991F61F09F3F79F021
:1009200087950895121613061406551FF2CF4695A3
:10093000F1DF08C0161617061806991FF1CF869525
:100940007105610508940895E894BB276627772709
:10095000CB0197F908950AD0C4CFB5DF28F0BADFEC
:1009600018F0952309F0A6CFABCFEFCFCBDFA8F3DC
:100970009923D9F35523C9F3950F50E0551FAA27A2
:10098000EE27FF27BB2700240894679520F4E20F89
:10099000F31FB41F0A1E220F331F441FAA1F6695A0
:1009A000A9F7779530F4F30FB41F0A1E121E08F44E
:1009B0006395330F441FAA1F221F769599F78795D9
:1009C00020F4B40F0A1E121E631F440FAA1F221F19
:1009D000331F8695A9F7862F712D602D11249F57FF
:1009E00050408AF0E1F088234AF0EE0FFF1FBB1F52
:1009F000661F771F881F91505040A9F79E3F5105F1
:100A000070F058CFA2CF5F3FECF3983EDCF38695B1
:100A100077956795B795F795E7959F5FC1F7FE2B9B
:100A2000880F911D9695879597F90895F894FFCFB3
:0A0A300001E7FBA93E30750000004D
:00000001FF
